{
  "contractName": "Test",
  "abi": [
    {
      "constant": true,
      "inputs": [],
      "name": "value",
      "outputs": [
        {
          "name": "",
          "type": "uint256"
        }
      ],
      "payable": false,
      "stateMutability": "view",
      "type": "function"
    },
    {
      "inputs": [],
      "payable": false,
      "stateMutability": "view",
      "type": "function",
      "constant": true,
      "name": "granparent_value",
      "outputs": [
        {
          "name": "",
          "type": "uint256"
        }
      ]
    },
    {
      "constant": true,
      "inputs": [
        {
          "name": "newValue",
          "type": "uint256"
        }
      ],
      "name": "parent2_value",
      "outputs": [
        {
          "name": "",
          "type": "uint256"
        }
      ],
      "payable": false,
      "stateMutability": "view",
      "type": "function"
    },
    {
      "constant": true,
      "inputs": [],
      "name": "parent1_value",
      "outputs": [
        {
          "name": "",
          "type": "uint256"
        }
      ],
      "payable": false,
      "stateMutability": "view",
      "type": "function"
    },
    {
      "inputs": [],
      "payable": false,
      "stateMutability": "nonpayable",
      "type": "constructor"
    },
    {
      "constant": false,
      "inputs": [
        {
          "name": "newValue",
          "type": "uint256"
        }
      ],
      "name": "test",
      "outputs": [],
      "payable": false,
      "stateMutability": "nonpayable",
      "type": "function"
    }
  ],
  "bytecode": "0x608060405234801561001057600080fd5b506005600381905550610150806100286000396000f3fe608060405234801561001057600080fd5b50600436106100575760003560e01c806329e99f071461005c5780633fa4f2451461008a5780635dce0fa6146100a8578063a6c56d47146100c6578063d8175b14146100e4575b600080fd5b6100886004803603602081101561007257600080fd5b8101908080359060200190929190505050610102565b005b61009261010c565b6040518082815260200191505060405180910390f35b6100b0610112565b6040518082815260200191505060405180910390f35b6100ce610118565b6040518082815260200191505060405180910390f35b6100ec61011e565b6040518082815260200191505060405180910390f35b8060038190555050565b60035481565b60005481565b60025481565b6001548156fea165627a7a72305820a09c9f3def458428edd94b35c587d98748c6d7528a9f4bdb954c3daf386e87790029",
  "source": "pragma solidity ^0.5.7;\n\ncontract GrandParent {\n  uint256 public granparent_value;\n}\n\ncontract Parent1 is GrandParent {\n  uint256 public parent1_value;\n}\n\ncontract Parent2 {\n  uint256 public parent2_value;\n}\n\ncontract Test is Parent1, Parent2 {\n  uint256 public value;\n\n  constructor() public {\n    value = 5;\n  }\n\n  function test(uint256 newValue) public {\n    value = newValue;\n  }\n}\n",
  "sourcePath": "/home/ajs/pocketh/contracts/Test.sol",
  "compiler": {
    "name": "solc",
    "version": "0.5.7+commit.6da8b019.Emscripten.clang"
  },
  "schemaVersion": "3.0.9",
  "updatedAt": "2019-05-10T02:16:17.741Z",
  "devdoc": {
    "methods": {}
  },
  "userdoc": {
    "methods": {}
  }
}