{
  "contractName": "Parent2",
  "abi": [
    {
      "constant": true,
      "inputs": [],
      "name": "parent2_value",
      "outputs": [
        {
          "name": "",
          "type": "uint256"
        }
      ],
      "payable": false,
      "stateMutability": "view",
      "type": "function"
    }
  ],
  "bytecode": "0x6080604052348015600f57600080fd5b50607b8061001e6000396000f3fe6080604052348015600f57600080fd5b506004361060285760003560e01c8063a6c56d4714602d575b600080fd5b60336049565b6040518082815260200191505060405180910390f35b6000548156fea165627a7a72305820ac8dac19133050afad5220b0fd73fba7ea5b257d6554e0fb642dfa986c9d798c0029",
  "source": "pragma solidity ^0.5.7;\n\ncontract GrandParent {\n  uint256 public granparent_value;\n}\n\ncontract Parent1 is GrandParent {\n  uint256 public parent1_value;\n}\n\ncontract Parent2 {\n  uint256 public parent2_value;\n}\n\ncontract Test is Parent1, Parent2 {\n  uint256 public value;\n\n  constructor() public {\n    value = 5;\n  }\n\n  function test(uint256 newValue) public {\n    value = newValue;\n  }\n}\n",
  "sourcePath": "/home/ajs/pocketh/contracts/Test.sol",
  "compiler": {
    "name": "solc",
    "version": "0.5.7+commit.6da8b019.Emscripten.clang"
  },
  "schemaVersion": "3.0.9",
  "updatedAt": "2019-05-10T02:16:17.736Z",
  "devdoc": {
    "methods": {}
  },
  "userdoc": {
    "methods": {}
  }
}