{
  "contractName": "Test",
  "abi": [
    {
      "constant": true,
      "inputs": [],
      "name": "value",
      "outputs": [
        {
          "name": "",
          "type": "uint256"
        }
      ],
      "payable": false,
      "stateMutability": "view",
      "type": "function"
    },
    {
      "inputs": [],
      "payable": false,
      "stateMutability": "nonpayable",
      "type": "constructor"
    },
    {
      "constant": false,
      "inputs": [
        {
          "name": "newValue",
          "type": "uint256"
        }
      ],
      "name": "test",
      "outputs": [],
      "payable": false,
      "stateMutability": "nonpayable",
      "type": "function"
    }
  ],
  "bytecode": "0x608060405234801561001057600080fd5b50600560008190555060ba806100276000396000f3fe6080604052348015600f57600080fd5b506004361060325760003560e01c806329e99f071460375780633fa4f245146062575b600080fd5b606060048036036020811015604b57600080fd5b8101908080359060200190929190505050607e565b005b60686088565b6040518082815260200191505060405180910390f35b8060008190555050565b6000548156fea165627a7a72305820131dfab4972299a3a344449b35b373ce7f9c93bcacebee8db5963ac80581e26c0029",
  "source": "pragma solidity ^0.5.7;\n\ncontract Test {\n  uint256 public value;\n\n  constructor() public {\n    value = 5;\n  }\n\n  function test(uint256 newValue) public {\n    value = newValue;\n  }\n}\n",
  "sourcePath": "/home/ajs/pocketh/contracts/Test.sol",
  "compiler": {
    "name": "solc",
    "version": "0.5.7+commit.6da8b019.Emscripten.clang"
  },
  "schemaVersion": "3.0.9",
  "updatedAt": "2019-05-10T00:55:42.496Z",
  "devdoc": {
    "methods": {}
  },
  "userdoc": {
    "methods": {}
  }
}